:020000040800F2
:1000000038070020CD010008D1010008D301000805
:10001000D5010008D7010008D90100080000000040
:10002000000000000000000000000000DB010008EC
:10003000DD01000800000000DF010008E101000808
:10004000E3010008E3010008E3010008E301000800
:10005000E3010008E3010008E3010008E3010008F0
:10006000E3010008E3010008E3010008E3010008E0
:10007000E3010008E3010008E3010008E3010008D0
:10008000E3010008E3010008E3010008E3010008C0
:10009000E3010008E3010008E3010008E3010008B0
:1000A000E3010008E3010008E3010008E3010008A0
:1000B000E3010008E3010008E3010008E301000890
:1000C000E3010008E3010008E3010008E301000880
:1000D000E301000811030008E3010008E301000840
:1000E000E3010008E3010008E3010008E301000860
:1000F000E3010008E3010008E3010008E301000850
:10010000E3010008E3010008E3010008E30100083F
:10011000E3010008E3010008E3010008E30100082F
:10012000E3010008E3010008E3010008E30100081F
:1001300000F002F800F03AF80AA090E8000C8244BF
:100140008344AAF10107DA4501D100F02FF8AFF29C
:10015000090EBAE80F0013F0010F18BFFB1A43F0A5
:1001600001031847D8070000F8070000103A24BF21
:1001700078C878C1FAD8520724BF30C830C144BF0C
:1001800004680C607047000000230024002500264E
:10019000103A28BF78C1FBD8520728BF30C148BFEA
:1001A0000B6070471FB51FBD10B510BD00F06AF899
:1001B0001146FFF7F7FF00F075F900F09CF803B463
:1001C000FFF7F2FF03BC00F0E5F800000848004725
:1001D000FEE7FEE7FEE7FEE7FEE7FEE7FEE7FEE7F7
:1001E000FEE7FEE703480449044A054B7047000058
:1001F00031010008380100203807002038030020B2
:1002000038030020704700000FB4044910B503AA5A
:10021000029800F009F810BC5DF814FB04000020FF
:100220007047704770477047074B70B50D467B4469
:1002300000F011F80446284600F020F810B14FF005
:10024000FF3070BD204670BDEF01000001694A1CFF
:1002500002610878704700B58FB0CDE90131002107
:10026000059105497944CDE903101146684600F02F
:100270002EF80FB000BD0000E5FFFFFF007B00F08F
:1002800080007047754600F03FF8AE4605006946AD
:10029000534620F00700854618B020B5FFF7A2FFAF
:1002A000BDE820404FF000064FF000074FF0000877
:1002B0004FF0000B21F00701AC46ACE8C009ACE8F8
:1002C000C009ACE8C009ACE8C0098D4670472DE90B
:1002D000F04106460024D6E90170F56880463046B4
:1002E00003E04146B847641C3046A8470028F8D1CF
:1002F0002046BDE8F08110B50446AFF300802046EB
:10030000BDE81040FFF75BBF00487047D4000020F5
:100310001D49096801F0200111B31B49091D096835
:10032000C8B21A49098801F40041C9B917490988B6
:1003300001F4804161B10A2803D00021134A1180E1
:1003400020E01249098841F40041104A118019E067
:100350000D2806D10D49098841F480410B4A1180CE
:1003600010E00A490988C1F30D01094A50540749B0
:100370000988491C054A118011460988C72901DDF1
:100380000021118070470000003801400800002063
:100390000C00002000BF70474FF0E021096941F0D8
:1003A00004014FF0E0221161054908601146096916
:1003B00041F0010111616FF070415161704700001F
:1003C0000000002010B504464FF47A7104FB01F0E0
:1003D00000F002F810BD000070B5034600224FF097
:1003E000E02675690D4E366803FB06F44FF0E026F3
:1003F000B16910E04FF0E026B06988420BD0884226
:1004000002D20E1A324402E02E1A0E443244014641
:10041000A24200D300E0EDE700BF70BD0000002065
:1004200000BF054A126802F04002002AF9D0C2B2A9
:10043000014B1B1D1A607047003801401CB500BFFE
:100440001548806940F008001349886100BF00BF6B
:100450000846806940F04000886100BF012000909C
:1004600000230246202101900C4800F0FFF80120F3
:1004700000900023024620210190094800F0F6F880
:1004800001222021054800F0E5F80122202104483E
:1004900000F0E0F81CBD000000100240000C01401C
:1004A000001801400024092000F0AEF94820FFF7B1
:1004B00073FF4FF4E131482000F0DEF9FFF7BEFF93
:1004C00048E02548008800F40040E8B1224806785A
:1004D00022A0FFF799FE00250DE02548405D254943
:1004E000086000BF2348001F006800F0400000289B
:1004F000F8D0681CC5B2B542EFDB1FA0FFF784FE41
:1005000000201549088025E0601C84B241F2883043
:1005100094FBF0F100FB114010B919A0FFF774FE35
:10052000C82094FBF0F100FB114010B916A0FFF7B2
:100530006BFE1E2094FBF0F100FB114038B900BFA8
:100540001848006880F020001649086000BF0A20A3
:10055000FFF738FFB5E70000080000200D0AC4FAD5
:10056000B7A2CBCDB5C4CFFBCFA2CEAA3A0D0A001D
:100570000C000020043801400D0A0D0A00000000A4
:100580000D0A454E440D0A00C7EBCAE4C8EBCAFD8C
:10059000BEDD2CD2D4BBD8B3B5BCFCBDE1CAF80DCE
:1005A0000A0000000C0C014010B50246002100209A
:1005B000264B1B6843F48033244C23600AE000BFC1
:1005C000224B1B6803F400331BB1B1F5004F00D977
:1005D00004E0491C4FF6F0739942F0D300BF4FF688
:1005E000F073994201D301202FE04FF48063174C40
:1005F0006360921E23465B6843EA8243636023463E
:100600005B6843F4803363601023114C23602346FE
:100610001B6843F0020323600C4B1B6843F080739C
:100620000A4C236000BF094B1B685B0E002BFAD0FD
:10063000064B5B6843F00203044C636000BF034B4E
:100640005B68C3F38103022BF9D110BD0010024097
:100650000020024002F001031BB103690B43036158
:1006600003E0036943EA0143036170472DE9F04F5A
:100670000E461D46DDE909C40021002788460023F7
:1006800000BF64E04FF0010909FA01F706EA070824
:10069000B8455BD10023012A01D0022A0AD10CF00F
:1006A000030305F0010943EA8903A2F1010943EAC2
:1006B000C90318E0BAB90CB9042314E00823D0F830
:1006C0000C904FF0010A0AFA01FA29EA0A09C0F867
:1006D0000C90D0F80CA004F0010909FA01F94AEADB
:1006E000090AC0F80CA0072916D8D0F800904FEAE4
:1006F000810B4FF00F0A0AFA0BFA29EA0A09C0F82F
:100700000090D0F800904FEA810A03FA0AFA49EA09
:100710000A09C0F8009019E0D0F80490A1F1080A85
:100720004FEA8A0B4FF00F0A0AFA0BFA29EA0A0974
:10073000C0F80490D0F80490A1F1080A4FEA8A0AA0
:1007400003FA0AFA49EA0A09C0F80490491C102978
:1007500098D3BDE8F08F00002DE9F04107468846A8
:1007600014461D46284600F033F8C5F1040007FA88
:1007700000F60F20284100EA0800064306F00F06A5
:10078000E21704EBD2625211920002F1E022D2F899
:1007900000212146E31704EBD3635B11A4EB431C58
:1007A000012303FA0CF31A432046E31704EBD36347
:1007B0005B119B0003F1E023C3F800210348005DB7
:1007C00040EA061001490855BDE8F08100E400E068
:1007D0000146072323EA01021202054B18684FF66F
:1007E000FF031840034B18431043014B1860704738
:1007F0000CED00E00000FA054A0A52020243014BE8
:100800001A60704708ED00E010B504460020174953
:100810000861C8601420486100208861C8610846EA
:10082000006840F001000860084640681049084030
:100830000E494860084600680E4908400B490860A8
:100840000846006820F4802008600846406820F4CC
:10085000FE0048604FF41F0088602046FFF7A4FEAA
:1008600000214FF00060FFF7C7FF10BD00100240ED
:100870000000FFF8FFFFF6FE7CB506460C4600BF01
:100880002A48806940F004002849886100BF00BF01
:100890000846806940F00400886100BF00BF084638
:1008A000806940F48040886100BF0120032100235B
:1008B0000222CDE9001041021D48FFF7D7FE0120BA
:1008C000032100231A46CDE9001081021848FFF7E2
:1008D000CDFE1848704300EB5400B0FBF4F5164809
:1008E000056000201449091D08600846006808607A
:1008F0000846006840F0080008600846006840F0BC
:10090000040008600846006840F0200008600223E8
:10091000252203210846FFF71FFF0748001D006836
:1009200040F400500449091D08607CBD00100240DD
:100930000008014040420F00083801405C090008EF
:10094000000000200C0000006C010008680900088D
:100950000C0000202C0700008801000800000000A7
:0809600000000000000000008F
:0400000508000131BD
:00000001FF
